:040000000DEF00F010
:040008005AEF21F09A
:06001800FF008AEF22F058
:0D3800000000010203040506070850010046
:10380E00610038F4D9F461003CF4DAF4610078F325
:10381E0013F5610078F314F5610078F315F5610086
:10382E0078F316F520EE04F00E50D9260F50DA225A
:10383E00DFA024EF1CF026EF1CF060EF1CF020EE52
:10384E0001F00C50D9260D50DA221338E842F80B4D
:10385E00F80BDF6E050E106ED8901632153214323C
:10386E001332102E33EF1CF020EE02F00C50D9263E
:10387E000D50DA2261004CF4DFF414C513F515C5B2
:10388E0014F516C515F5166A20EE03F00C50D92660
:10389E000D50DA2213501F0BDF6E050E106ED890EE
:1038AE001632153214321332102E56EF1CF078EFFA
:1038BE001CF020EE03F00C50D9260D50DA22000E2B
:1038CE00DF6E10EE02F00C50E1260D50E222DFC446
:1038DE00E7F420EE01F00C50D9260D50DA22E7C4A1
:1038EE00DFF4610030F4D9F4610034F4DAF46100ED
:1038FE004CF4DFF414C513F515C514F516C515F5FE
:10390E00166A13C510F5070E101620EE01F00C50B6
:10391E00D9260D50DA221050DF1220EE04F00E5090
:10392E00D9260F50DA22DF30E8320F0B126E20EE5E
:10393E0004F00E50D9260F50DA22DFB0A9EF1CF09A
:10394E00ADEF1CF0106A102AAEEF1CF0106A1038A2
:10395E00F00B121220EE04F00E50D9260F50DA2280
:10396E00DFB2BCEF1CF0C0EF1CF0200E106EC1EFEA
:10397E001CF0106A1050121220EE04F00E50D926D0
:10398E000F50DA22DFBECEEF1CF0D2EF1CF0400E4D
:10399E00106ED3EF1CF0106A1050121220EE04F0CD
:1039AE000E50D9260F50DA22DFBCE0EF1CF0E4EF08
:1039BE001CF0800E106EE5EF1CF0106A1050121203
:1039CE0020EE04F00C50D9260D50DA22610048F496
:1039DE00DFF420EE04F00E50D9260F50DA22DFB2BB
:1039EE00FBEF1CF0FDEF1CF029EF1DF0080E0C2470
:1039FE00016E000E0D20026E20EE05F00E50D9263F
:103A0E000F50DA22610078F303F5610074F304F5C8
:103A1E0020EE04F00E50D9260F50DA22DF30E832B5
:103A2E000F0B106E116A010E1024F66E380E112057
:103A3E00F76EF86A000EF8220800F550056E066A59
:103A4E004DEC23F0120020EE04F00C50D9260D5050
:103A5E00DA22DF50166E16C510F520EE04F00E5069
:103A6E00D9260F50DA2210461046DF501018C30B1D
:103A7E001018DF6E16B846EF1DF04AEF1DF0106AF3
:103A8E00102A4BEF1DF0106A20EE04F00E50D926CE
:103A9E000F50DA22DF501018FE0B1018DF6E16BA18
:103AAE005BEF1DF05FEF1DF0106A102A60EF1DF046
:103ABE00106A20EE04F00E50D9260F50DA2210466E
:103ACE00DF501018FD0B1018DF6E16BC71EF1DF0D5
:103ADE0075EF1DF0106A102A76EF1DF0106A20EEB9
:103AEE0004F00E50D9260F50DA2210321032DF5069
:103AFE0010187F0B1018DF6E16BE88EF1DF08CEFBE
:103B0E001DF0106A102A8DEF1DF0106A20EE04F0E1
:103B1E000E50D9260F50DA22103A10461046DF50BA
:103B2E001018BF0B1018DF6E20EE01F00C50D926C6
:103B3E000D50DA22DF50106E070E10161050126E56
:103B4E00136A146A156A14C515F513C514F512C552
:103B5E0013F5126A610030F4D9F4610034F4DAF42A
:103B6E00DF50106E1050121220EE04F00E50D926B7
:103B7E000F50DA22DFA0C6EF1DF0C8EF1DF009EFDF
:103B8E001EF0050ED8901236133614361536E82E62
:103B9E00C9EF1DF020EE03F00C50D9260D50DA229D
:103BAE00DF50106E1F0E10161050121214C515F5A0
:103BBE0013C514F512C513F5126A20EE02F00C505F
:103BCE00D9260D50DA22DF50106E10501212050E4B
:103BDE00D8901236133614361536E82EEFEF1DF048
:103BEE0020EE01F00C50D9260D50DA22DF50106E67
:103BFE00D8901032D8901032D89010321F0E101666
:103C0E0010501212610038F4D9F461003CF4DAF469
:103C1E00610048F4DEF461004CF4DEF4610050F40F
:103C2E00DEF4610054F4DEF4480E016E050E026EF1
:103C3E00080E0C24036E000E0D20046E20EE04F010
:103C4E000E50D9260F50DA22DF30E8320F0B106EED
:103C5E00116A010E1024F66E380E1120F76EF86AF6
:103C6E00000EF8220800F550056E066A4DEC23F0A2
:103C7E0020EE05F00E50D9260F50DA22480EDE6ED9
:103C8E00050EDD6E12000301879F000E396E000EC9
:103C9E00286EF5EC20F00009D8B458EF1EF05AEF5C
:103CAE001EF050EF1EF0320E216E050E226E010E2A
:103CBE0020EC23F0E806D8A467EF1EF069EF1EF0A3
:103CCE0050EF1EF06100DCF4D9F46100E0F4DAF498
:103CDE00DF50286E20EE01F03750D9263850DA2208
:103CEE00DF50296E20EE02F03750D9263850DA22F6
:103CFE00DF50396E7E0E3A6E000E3B6E000E3C6E3D
:103D0E00000E3D6E3E50C30B20093E6E3E9E3E9011
:103D1E003E9C3E922950400F2B6E39C52CF5550E08
:103D2E00316E2904D8A49EEF1EF0A0EF1EF05FEFB7
:103D3E001FF0020E2818D8B4A7EF1EF0A9EF1EF040
:103D4E00ABEF1EF05FEF1FF03950D8A4B1EF1EF0AD
:103D5E00B3EF1EF0BFEF1EF0060E2A6E180E2D6E7C
:103D6E00780E2E6E000E2F6E000E306E49EF1FF085
:103D7E00040E3918D8A4C6EF1EF0C8EF1EF0D4EF0B
:103D8E001EF0030E2A6EBF0E2D6E550E2E6E550EA4
:103D9E002F6E550E306E49EF1FF0050E3918D8A450
:103DAE00DBEF1EF0DDEF1EF0E9EF1EF0030E2A6EC4
:103DBE00640E2D6E550E2E6E550E2F6E550E306EE8
:103DCE0049EF1FF00A0E3918D8A4F0EF1EF0F2EFEB
:103DDE001EF0FEEF1EF0030E2A6E960E2D6E550E81
:103DEE002E6E550E2F6E550E306E49EF1FF00B0EC8
:103DFE003918D8A405EF1FF007EF1FF013EF1FF0CF
:103E0E00030E2A6EC80E2D6E550E2E6E550E2F6E8B
:103E1E00550E306E49EF1FF00C0E3918D8A41AEF5C
:103E2E001FF01CEF1FF028EF1FF0040E2A6E360E47
:103E3E002D6EB00E2E6E550E2F6E550E306E49EF46
:103E4E001FF00D0E3918D8A42FEF1FF031EF1FF011
:103E5E003DEF1FF0030E2A6E460E2D6E550E2E6E82
:103E6E00550E2F6E550E306E49EF1FF03928D8A41F
:103E7E0043EF1FF045EF1FF049EF1FF00301878F4F
:103E8E005FEF1FF02A0E3F6E050E406E000E65ECC2
:103E9E0024F0276E27A056EF1FF058EF1FF05FEFAC
:103EAE001FF03A0E176E050E186E000E40EC22F043
:103EBE00120001011DAF66EF1FF068EF1FF078EFE3
:103ECE001FF002D876EF1FF00500FA6E0501725151
:103EDE00FD6E7351FE6E7451FF6EFA5012000101A9
:103EEE001D9F1DAD7DEF1FF07FEF1FF08FEF1FF0B9
:103EFE0002D88DEF1FF00500FA6E05016F51FD6EB1
:103F0E007051FE6E7151FF6EFA50120001011D9D2F
:103F1E001DAB94EF1FF096EF1FF0A6EF1FF002D827
:103F2E00A4EF1FF00500FA6E05016C51FD6E6D5188
:103F3E00FE6E6E51FF6EFA50120001011D9B1CA702
:103F4E00ABEF1FF0ADEF1FF0BDEF1FF002D8BBEFD0
:103F5E001FF00500FA6E05016951FD6E6A51FE6E85
:103F6E006B51FF6EFA50120001011C971DA9C2EF92
:103F7E001FF0C4EF1FF0D4EF1FF002D8D2EF1FF0E6
:103F8E000500FA6E05016651FD6E6751FE6E6851B1
:103F9E00FF6EFA50120001011D991DA5D9EF1FF0F9
:103FAE00DBEF1FF0F2EF1FF002D8E9EF1FF0050074
:103FBE00FA6E05016351FD6E6451FE6E6551FF6E22
:103FCE00FA501200010154A9EFEF1FF0F1EF1FF0AC
:103FDE00F2EF1FF054991DA7F7EF1FF0F9EF1FF046
:103FEE0010EF20F002D807EF20F00500FA6E050161
:103FFE006051FD6E6151FE6E6251FF6EFA501200FD
:10400E00010160A70DEF20F00FEF20F010EF20F070
:10401E006097AE9C1200206E000E1C6E1750C7ECFF
:10402E0024F01F6E1FA01EEF20F020EF20F086EF71
:10403E0020F017500C0D580EF324D96E010EF420FB
:10404E00DA6E610078F31DF5610074F31EF51D50F4
:10405E001E10D8B435EF20F037EF20F086EF20F0A9
:10406E001DC50CF51EC50DF518C50EF519C50FF5B8
:10407E002AEC1DF017500C0D510EF324D96E010EC3
:10408E00F420DA6E000EDB802050020D790EF32440
:10409E00D96E050EF420DA6EDF2A17509FEC24F04D
:1040AE001A6E2050020D790EF324D96E050EF420EF
:1040BE00DA6E1A50DE5CD8A067EF20F069EF20F0C0
:1040CE0073EF20F02050020D790EF324D96E050EF9
:1040DE00F420DA6E000EDF6E1FA678EF20F07AEF76
:1040EE0020F084EF20F017500C0D540EF324D96EEF
:1040FE00010EF420DA6EF70EDF16010E1C6E1C5048
:10410E001200076E000E086E20EE04F00250D92643
:10411E000350DA22DF50096E09AE98EF20F09AEFC5
:10412E0020F0A5EF20F034EC25F0060AD8A4A2EF7B
:10413E0020F0A4EF20F0A5EF20F008820930E8323D
:10414E000F0B046E080E0464AFEF20F0B1EF20F0F9
:10415E00C3EF20F009ACB6EF20F0B8EF20F0C2EFBD
:10416E0020F034EC25F0060AD8A4C0EF20F0C2EF00
:10417E0020F0C3EF20F00880090EF66E380EF76EB1
:10418E00000EF86E08006100D4F304F50930E83231
:10419E000F0B056E066A010E0524F66E380E06200C
:1041AE00F76EF86A000EF8220800F550045CD8B0DD
:1041BE00E3EF20F0E5EF20F0E6EF20F00880075067
:1041CE00BBEC24F00009D8A4EFEF20F0F1EF20F0C3
:1041DE00F3EF20F0030E081208501200000E036ECB
:1041EE00000E0A6E0A50020D780EF324D96E050EDB
:1041FE00F420DA6EDF50066E0650C7EC24F0056E22
:10420E0005A00CEF21F00EEF21F04FEF21F006503C
:10421E009FEC24F0076E05A617EF21F019EF21F0A1
:10422E001DEF21F007C504F54DEF21F006500C0DE2
:10423E00550EF324D96E010EF420DA6EDF501F0BEB
:10424E00086E0A50020D790EF324D96E050EF42075
:10425E00DA6EDF50096E0950085CD8B039EF21F0E4
:10426E003BEF21F041EF21F00950085C0724046E6A
:10427E004DEF21F00850095CD8B048EF21F04AEF1D
:10428E0021F019EF21F00950085C046E045003264A
:10429E000A2A0A50D8B456EF21F058EF21F0F9EF60
:1042AE0020F0035012006100D8F341F56100DCF3F9
:1042BE0042F56100E0F343F56100D4F344F59EA8A6
:1042CE006BEF21F06DEF21F078EF21F0AEA872EFD9
:1042DE0021F074EF21F078EF21F0CDEC23F09CEF7C
:1042EE0021F09EAC7DEF21F07FEF21F08AEF21F0DF
:1042FE00AEAC84EF21F086EF21F08AEF21F060EC76
:10430E001FF09CEF21F0A2A88FEF21F091EF21F08A
:10431E009CEF21F0B2A896EF21F098EF21F09CEFE0
:10432E0021F03BEC24F09CEF21F0610010F5F5F448
:10433E0061000CF5F8F4610008F5F7F4610004F57E
:10434E00F6F411000501776F000E0501766F2FEC64
:10435E0025F00501756F040E7519D8B4B9EF21F06B
:10436E00BBEF21F0CCEF21F07705D8B4C1EF21F0EF
:10437E00C3EF21F0CCEF21F0040E7719D8A4CAEFC9
:10438E0021F0CCEF21F0F1EF21F0010103510501F5
:10439E007719F80B77190101036FE3EF21F0010193
:1043AE001DA9DCEF21F0DEEF21F0E3EF21F0020E8C
:1043BE000501766FF3EF21F00239E832070B0501A4
:1043CE007719D8A4EDEF21F0EFEF21F0D6EF21F021
:1043DE00F3EF21F0010E766F76511200880E050173
:1043EE00756F4A0E766F000E776F1AEC25F08A0EF7
:1043FE000501756F4A0E766F000E776F21EC25F072
:10440E008C0E0501756F4A0E766F000E776F28ECD5
:10441E0025F0860E0501756F4A0E766F000E776FCA
:10442E0013EC25F0820E0501756F4A0E766F000EA5
:10443E00776F05EC25F0800E0501756F4A0E766FCD
:10444E00000E776FFEEC24F0840E0501756F4A0E98
:10445E00766F000E776F0CEC25F0AE9C000E01010E
:10446E001C6F000E1D6F0A0E1E6FFC0E1F6F9E8CB2
:10447E0012001C6E1C50EEEC23F00009D8B44AEF6B
:10448E0022F04CEF22F089EF22F017C502F518C585
:10449E0003F51C5088EC20F0196E1950D8A45AEF71
:1044AE0022F05CEF22F089EF22F01C500C0D580E1A
:1044BE00F324D96E010EF420DA6E610078F31AF54A
:1044CE00610074F31BF51A501B10D8B471EF22F073
:1044DE0073EF22F089EF22F01AC50CF51BC50DF50E
:1044EE0017C50EF518C50FF507EC1CF01C500C0D7A
:1044FE00510EF324D96E010EF420DA6E030EDF1284
:10450E0089EF22F012007E0EF66E4A0EF76E000E46
:10451E00F86E09006100D4F378F509006100D4F358
:10452E0079F5720EF66E4A0EF76E000EF86E01EE0B
:10453E0050F110EE08F00900F5C4EEF4E550E1502C
:10454E00FAE101EE60F1150EEE6AE806FDE101EE0C
:10455E0045F10B0EEE6AE806FDE10401080E5D6FF3
:10456E00000E5E6F000E5F6F0001E7EF24F0000E8D
:10457E00BE6E000EBF6E000EC06E080ECA6EC6680E
:10458E00CF0EC76ECB0EC86EC30E0401106FCF0ECA
:10459E00086FF60E006F000E216F000E096F000EF1
:1045AE00016F000E116F000E026F300E0A6F000EBB
:1045BE00126F03690B69136904690C691469080E9B
:1045CE00246F000E02014B6F460E156F130E3D6FDA
:1045DE00120021EE50F111EE1EF1070EDBC4E3F4D2
:1045EE00E806FCE22A9E2A50C30B20092A6E2A9C5A
:1045FE002A922A90850E266E050E276E000E286EC4
:10460E00000E296E1E0E2B6E050E2C6E000E65EC26
:10461E0024F01D6E1DA016EF23F018EF23F01FEFF0
:10462E0023F0260E176E050E186E000E40EC22F0CB
:10463E001200256E000E246E000E266E2650020D00
:10464E00780EF324D96E050EF420DA6E2550DE189E
:10465E00D8A434EF23F036EF23F042EF23F025C534
:10466E0017F521C518F522C519F5265012EC20F0C4
:10467E00246E4BEF23F0262A2650D8B449EF23F0B0
:10468E004BEF23F025EF23F02450120003C509F55C
:10469E0004C50AF501C507F502C508F56CEF23F050
:1046AE00610024F4D9F4610028F4DAF4DF500B6EC3
:1046BE00094A0A2A61001CF4D9F4610020F4DAF4E4
:1046CE0061002CF4DFF4074A082A0506D8A0060676
:1046DE00052806E10628D8A477EF23F079EF23F01A
:1046EE0057EF23F012000101018F040EA9EC21F007
:1046FE000009D8A485EF23F087EF23F0A5EF23F070
:10470E00000E01014C6F380E4D6F000E4E6F000EF5
:10471E004F6F600E006F970E016F100E026FDDEC83
:10472E0024F0D3EC24F024EC24F08CEC24F00DECEB
:10473E0024F0F5EC21F0060EA9EC21F01200030195
:10474E00879F000E886F0C0E896F040E8F6F000E00
:10475E00906F010E8A6F3C0E8E6F8C0E8D6F000E59
:10476E008C6F000E8B6F000EBB6F889588938891AF
:10477E00E00E0501756F450E766F000E776FF0EC4B
:10478E0024F09E88840E0301876F1200030188A512
:10479E00D3EF23F0D5EF23F0D6EF23F088955850C2
:1047AE0059105A10D8B4DEEF23F0E0EF23F0EDEFFE
:1047BE0023F002D8EDEF23F00500FA6E5850FD6E8F
:1047CE005950FE6E5A50FF6EFA5012001200026ED1
:1047DE00000E016E040E0260F7EF23F0F9EF23F0E6
:1047EE000BEF24F002500C0D500EF324D96E010E77
:1047FE00F420DA6E0101DFAE07EF24F009EF24F0AA
:10480E000BEF24F0010E016E01501200000E050197
:10481E00756F7551020D790EF324D96E050EF420C5
:10482E00DA6E000EDF6E752B7551D8B421EF24F0C1
:10483E0023EF24F010EF24F01200090E01015C6F3B
:10484E00040E5D6F600E5E6F050E5F6F940E0501B8
:10485E00756F3C0E766F000E776FF7EC24F001014A
:10486E001E83B298A2881200010160A141EF24F0CC
:10487E0043EF24F050EF24F002D850EF24F005005F
:10488E00FA6E4550FD6E4650FE6E4750FF6EFA5062
:10489E0012001200000E0001606F000E616F000E1C
:1048AE00626F000E636F000E646F000E656F000E78
:1048BE00666F000E676F000E686F1200046E000EBA
:1048CE00036E0450EEEC23F00009D8B471EF24F01F
:1048DE0073EF24F077EF24F00450BBEC24F0036E5A
:1048EE0003501200200E0001AD6F000EAF6F000ED0
:1048FE00B36F080EB16F000EB06FB2A189EF24F046
:10490E008BEF24F084EF24F01200DF0E01018C6F88
:10491E00070E8D6F000E8E6F000E8F6F9069070E53
:10492E00916F000E926F400E936F810E806F12008A
:10493E00026E02500C0D530EF324D96E010EF420AC
:10494E00DA6EDF50016E1F0E0116012812003DECCB
:10495E0025F051EC24F0A6EC23F0BEEC22F079EC1D
:10496E0024F07AEC23F01200016E01500C0D540E5F
:10497E00F324D96E010EF420DA6EDF50010B120013
:10498E00016E01500C0D540EF324D96E010EF4205D
:10499E00DA6EDF50090B1200100E0101506F040E7B
:1049AE00516F600E526F050E536F12004F0E0101C4
:1049BE00046F4F0E056FEE0E066F000E076F12009E
:1049CE00AEEC24F0D68EC094C09AECEF24F00DEF2E
:1049DE0000F075C558F576C559F577C55AF512002C
:1049EE0075C545F576C546F577C547F5120075C50B
:1049FE0063F576C564F577C565F5120075C566F580
:104A0E0076C567F577C568F5120075C560F576C58C
:104A1E0061F577C562F5120075C569F576C56AF55B
:104A2E0077C56BF5120075C572F576C573F577C54A
:104A3E0074F5120075C56FF576C570F577C571F50D
:104A4E00120075C56CF576C56DF577C56EF512005D
:104A5E0001010239E832070B120001010239E83276
:104A6E00070B12000011223344556677D69A1200B6
:104A7E0001001200120012001200120012001200A9
:020000040020DA
:10000000FF0FFF0FFF0FFF0FFF0FFF0FFF0FFF0F80
:10001000FF0FFF0FFF0FFF0FFF0FFF0FFF0FFF0F70
:020000040030CA
:10000000AAFFF7FF9FC7FFFFFFFFFFFFFFFFFFFFF5
:10001000FFFFFFFFFFFFFFFFFFFFFFFFFFFFFFFFF0
:04002000FFFFFFFFE0
:00000001FF
